{
  "contractName": "Marketplace",
  "abi": [
    {
      "inputs": [
        {
          "internalType": "uint256",
          "name": "_feePercent",
          "type": "uint256"
        }
      ],
      "stateMutability": "nonpayable",
      "type": "constructor"
    },
    {
      "anonymous": false,
      "inputs": [
        {
          "indexed": false,
          "internalType": "uint256",
          "name": "itemId",
          "type": "uint256"
        },
        {
          "indexed": true,
          "internalType": "address",
          "name": "nft",
          "type": "address"
        },
        {
          "indexed": false,
          "internalType": "uint256",
          "name": "tokenId",
          "type": "uint256"
        },
        {
          "indexed": false,
          "internalType": "uint256",
          "name": "price",
          "type": "uint256"
        },
        {
          "indexed": true,
          "internalType": "address",
          "name": "seller",
          "type": "address"
        },
        {
          "indexed": true,
          "internalType": "address",
          "name": "buyer",
          "type": "address"
        }
      ],
      "name": "Bought",
      "type": "event"
    },
    {
      "anonymous": false,
      "inputs": [
        {
          "indexed": false,
          "internalType": "uint256",
          "name": "itemId",
          "type": "uint256"
        },
        {
          "indexed": true,
          "internalType": "address",
          "name": "nft",
          "type": "address"
        },
        {
          "indexed": false,
          "internalType": "uint256",
          "name": "tokenId",
          "type": "uint256"
        },
        {
          "indexed": false,
          "internalType": "uint256",
          "name": "price",
          "type": "uint256"
        },
        {
          "indexed": true,
          "internalType": "address",
          "name": "seller",
          "type": "address"
        }
      ],
      "name": "Offered",
      "type": "event"
    },
    {
      "inputs": [],
      "name": "feeAccount",
      "outputs": [
        {
          "internalType": "address payable",
          "name": "",
          "type": "address"
        }
      ],
      "stateMutability": "view",
      "type": "function",
      "constant": true
    },
    {
      "inputs": [],
      "name": "feePercent",
      "outputs": [
        {
          "internalType": "uint256",
          "name": "",
          "type": "uint256"
        }
      ],
      "stateMutability": "view",
      "type": "function",
      "constant": true
    },
    {
      "inputs": [],
      "name": "itemCount",
      "outputs": [
        {
          "internalType": "uint256",
          "name": "",
          "type": "uint256"
        }
      ],
      "stateMutability": "view",
      "type": "function",
      "constant": true
    },
    {
      "inputs": [
        {
          "internalType": "uint256",
          "name": "",
          "type": "uint256"
        }
      ],
      "name": "items",
      "outputs": [
        {
          "internalType": "uint256",
          "name": "itemId",
          "type": "uint256"
        },
        {
          "internalType": "contract IERC721",
          "name": "nft",
          "type": "address"
        },
        {
          "internalType": "uint256",
          "name": "tokenId",
          "type": "uint256"
        },
        {
          "internalType": "uint256",
          "name": "price",
          "type": "uint256"
        },
        {
          "internalType": "address payable",
          "name": "seller",
          "type": "address"
        },
        {
          "internalType": "bool",
          "name": "sold",
          "type": "bool"
        }
      ],
      "stateMutability": "view",
      "type": "function",
      "constant": true
    },
    {
      "inputs": [],
      "name": "tPrice",
      "outputs": [
        {
          "internalType": "uint256",
          "name": "",
          "type": "uint256"
        }
      ],
      "stateMutability": "view",
      "type": "function",
      "constant": true
    },
    {
      "inputs": [
        {
          "internalType": "contract IERC721",
          "name": "_nft",
          "type": "address"
        },
        {
          "internalType": "uint256",
          "name": "_tokenId",
          "type": "uint256"
        },
        {
          "internalType": "uint256",
          "name": "_price",
          "type": "uint256"
        }
      ],
      "name": "makeItem",
      "outputs": [],
      "stateMutability": "nonpayable",
      "type": "function"
    },
    {
      "inputs": [
        {
          "internalType": "uint256",
          "name": "_itemId",
          "type": "uint256"
        }
      ],
      "name": "purchaseItem",
      "outputs": [],
      "stateMutability": "payable",
      "type": "function",
      "payable": true
    },
    {
      "inputs": [
        {
          "internalType": "uint256",
          "name": "_itemId",
          "type": "uint256"
        }
      ],
      "name": "getTotalPrice",
      "outputs": [
        {
          "internalType": "uint256",
          "name": "",
          "type": "uint256"
        }
      ],
      "stateMutability": "view",
      "type": "function",
      "constant": true
    },
    {
      "inputs": [
        {
          "internalType": "uint256",
          "name": "_itemId",
          "type": "uint256"
        }
      ],
      "name": "setTotalPriceTwo",
      "outputs": [],
      "stateMutability": "nonpayable",
      "type": "function"
    },
    {
      "inputs": [],
      "name": "getTotalPriceTwo",
      "outputs": [
        {
          "internalType": "uint256",
          "name": "",
          "type": "uint256"
        }
      ],
      "stateMutability": "view",
      "type": "function",
      "constant": true
    },
    {
      "inputs": [],
      "name": "getItemCount",
      "outputs": [
        {
          "internalType": "uint256",
          "name": "",
          "type": "uint256"
        }
      ],
      "stateMutability": "view",
      "type": "function",
      "constant": true
    }
  ],
  "bytecode": "0x60c060405234801561001057600080fd5b5060405161122238038061122283398181016040528101906100329190610094565b60016000819055503373ffffffffffffffffffffffffffffffffffffffff1660808173ffffffffffffffffffffffffffffffffffffffff1660601b815250508060a08181525050506100de565b60008151905061008e816100c7565b92915050565b6000602082840312156100a657600080fd5b60006100b48482850161007f565b91505092915050565b6000819050919050565b6100d0816100bd565b81146100db57600080fd5b50565b60805160601c60a05161110761011b600039600081816102d00152818161038101526103e201526000818161029c01526105c701526111076000f3fe60806040526004361061009c5760003560e01c8063bfb231d211610064578063bfb231d214610178578063ca7dd375146101ba578063d17f00ae146101f7578063d38ea5bf14610220578063efac45461461023c578063fa00afc7146102675761009c565b80630923f6f8146100a157806365e17c9d146100cc5780636bfb0d01146100f75780637749cf23146101225780637fd6f15c1461014d575b600080fd5b3480156100ad57600080fd5b506100b6610290565b6040516100c39190610cef565b60405180910390f35b3480156100d857600080fd5b506100e161029a565b6040516100ee9190610c1d565b60405180910390f35b34801561010357600080fd5b5061010c6102be565b6040516101199190610cef565b60405180910390f35b34801561012e57600080fd5b506101376102c4565b6040516101449190610cef565b60405180910390f35b34801561015957600080fd5b506101626102ce565b60405161016f9190610cef565b60405180910390f35b34801561018457600080fd5b5061019f600480360381019061019a9190610b1d565b6102f2565b6040516101b196959493929190610d0a565b60405180910390f35b3480156101c657600080fd5b506101e160048036038101906101dc9190610b1d565b61037b565b6040516101ee9190610cef565b60405180910390f35b34801561020357600080fd5b5061021e60048036038101906102199190610b1d565b6103de565b005b61023a60048036038101906102359190610b1d565b610441565b005b34801561024857600080fd5b506102516107cc565b60405161025e9190610cef565b60405180910390f35b34801561027357600080fd5b5061028e60048036038101906102899190610ace565b6107d2565b005b6000600254905090565b7f000000000000000000000000000000000000000000000000000000000000000081565b60015481565b6000600154905090565b7f000000000000000000000000000000000000000000000000000000000000000081565b60036020528060005260406000206000915090508060000154908060010160009054906101000a900473ffffffffffffffffffffffffffffffffffffffff16908060020154908060030154908060040160009054906101000a900473ffffffffffffffffffffffffffffffffffffffff16908060040160149054906101000a900460ff16905086565b600060647f000000000000000000000000000000000000000000000000000000000000000060646103ac9190610db3565b60036000858152602001908152602001600020600301546103cd9190610e3a565b6103d79190610e09565b9050919050565b60647f0000000000000000000000000000000000000000000000000000000000000000606461040d9190610db3565b600360008481526020019081526020016000206003015461042e9190610e3a565b6104389190610e09565b60028190555050565b60026000541415610487576040517f08c379a000000000000000000000000000000000000000000000000000000000815260040161047e90610ccf565b60405180910390fd5b6002600081905550600061049a8261037b565b905060006003600084815260200190815260200160002090506000831180156104c557506001548311155b610504576040517f08c379a00000000000000000000000000000000000000000000000000000000081526004016104fb90610caf565b60405180910390fd5b8060040160149054906101000a900460ff1615610556576040517f08c379a000000000000000000000000000000000000000000000000000000000815260040161054d90610c6f565b60405180910390fd5b8060040160009054906101000a900473ffffffffffffffffffffffffffffffffffffffff1673ffffffffffffffffffffffffffffffffffffffff166108fc82600301549081150290604051600060405180830381858888f193505050501580156105c4573d6000803e3d6000fd5b507f000000000000000000000000000000000000000000000000000000000000000073ffffffffffffffffffffffffffffffffffffffff166108fc82600301548461060f9190610e94565b9081150290604051600060405180830381858888f1935050505015801561063a573d6000803e3d6000fd5b5060018160040160146101000a81548160ff0219169083151502179055508060010160009054906101000a900473ffffffffffffffffffffffffffffffffffffffff1673ffffffffffffffffffffffffffffffffffffffff166323b872dd303384600201546040518463ffffffff1660e01b81526004016106bd93929190610c38565b600060405180830381600087803b1580156106d757600080fd5b505af11580156106eb573d6000803e3d6000fd5b505050503373ffffffffffffffffffffffffffffffffffffffff168160040160009054906101000a900473ffffffffffffffffffffffffffffffffffffffff1673ffffffffffffffffffffffffffffffffffffffff168260010160009054906101000a900473ffffffffffffffffffffffffffffffffffffffff1673ffffffffffffffffffffffffffffffffffffffff167f8b4c9c8a607d67b321582dd8461041b1dc2ceeca70c8b7f37f8e02095cf2e76d86856002015486600301546040516107b793929190610d6b565b60405180910390a45050600160008190555050565b60025481565b60026000541415610818576040517f08c379a000000000000000000000000000000000000000000000000000000000815260040161080f90610ccf565b60405180910390fd5b600260008190555060008111610863576040517f08c379a000000000000000000000000000000000000000000000000000000000815260040161085a90610c8f565b60405180910390fd5b6001600081548092919061087690610f58565b91905055508273ffffffffffffffffffffffffffffffffffffffff166323b872dd3330856040518463ffffffff1660e01b81526004016108b893929190610c38565b600060405180830381600087803b1580156108d257600080fd5b505af11580156108e6573d6000803e3d6000fd5b505050506040518060c0016040528060015481526020018473ffffffffffffffffffffffffffffffffffffffff1681526020018381526020018281526020013373ffffffffffffffffffffffffffffffffffffffff168152602001600015158152506003600060015481526020019081526020016000206000820151816000015560208201518160010160006101000a81548173ffffffffffffffffffffffffffffffffffffffff021916908373ffffffffffffffffffffffffffffffffffffffff160217905550604082015181600201556060820151816003015560808201518160040160006101000a81548173ffffffffffffffffffffffffffffffffffffffff021916908373ffffffffffffffffffffffffffffffffffffffff16021790555060a08201518160040160146101000a81548160ff0219169083151502179055509050503373ffffffffffffffffffffffffffffffffffffffff168373ffffffffffffffffffffffffffffffffffffffff167f655a0cf9c8db81512be9a76dc1c5ae5380b8816ce6ad659cd61b715e2999d59a6001548585604051610a8f93929190610d6b565b60405180910390a36001600081905550505050565b600081359050610ab3816110a3565b92915050565b600081359050610ac8816110ba565b92915050565b600080600060608486031215610ae357600080fd5b6000610af186828701610aa4565b9350506020610b0286828701610ab9565b9250506040610b1386828701610ab9565b9150509250925092565b600060208284031215610b2f57600080fd5b6000610b3d84828501610ab9565b91505092915050565b610b4f81610eda565b82525050565b610b5e81610ec8565b82525050565b610b6d81610eec565b82525050565b610b7c81610f34565b82525050565b6000610b8f601183610da2565b9150610b9a82610fff565b602082019050919050565b6000610bb2601f83610da2565b9150610bbd82611028565b602082019050919050565b6000610bd5601283610da2565b9150610be082611051565b602082019050919050565b6000610bf8601f83610da2565b9150610c038261107a565b602082019050919050565b610c1781610f2a565b82525050565b6000602082019050610c326000830184610b46565b92915050565b6000606082019050610c4d6000830186610b55565b610c5a6020830185610b55565b610c676040830184610c0e565b949350505050565b60006020820190508181036000830152610c8881610b82565b9050919050565b60006020820190508181036000830152610ca881610ba5565b9050919050565b60006020820190508181036000830152610cc881610bc8565b9050919050565b60006020820190508181036000830152610ce881610beb565b9050919050565b6000602082019050610d046000830184610c0e565b92915050565b600060c082019050610d1f6000830189610c0e565b610d2c6020830188610b73565b610d396040830187610c0e565b610d466060830186610c0e565b610d536080830185610b46565b610d6060a0830184610b64565b979650505050505050565b6000606082019050610d806000830186610c0e565b610d8d6020830185610c0e565b610d9a6040830184610c0e565b949350505050565b600082825260208201905092915050565b6000610dbe82610f2a565b9150610dc983610f2a565b9250827fffffffffffffffffffffffffffffffffffffffffffffffffffffffffffffffff03821115610dfe57610dfd610fa1565b5b828201905092915050565b6000610e1482610f2a565b9150610e1f83610f2a565b925082610e2f57610e2e610fd0565b5b828204905092915050565b6000610e4582610f2a565b9150610e5083610f2a565b9250817fffffffffffffffffffffffffffffffffffffffffffffffffffffffffffffffff0483118215151615610e8957610e88610fa1565b5b828202905092915050565b6000610e9f82610f2a565b9150610eaa83610f2a565b925082821015610ebd57610ebc610fa1565b5b828203905092915050565b6000610ed382610f0a565b9050919050565b6000610ee582610f0a565b9050919050565b60008115159050919050565b6000610f0382610ec8565b9050919050565b600073ffffffffffffffffffffffffffffffffffffffff82169050919050565b6000819050919050565b6000610f3f82610f46565b9050919050565b6000610f5182610f0a565b9050919050565b6000610f6382610f2a565b91507fffffffffffffffffffffffffffffffffffffffffffffffffffffffffffffffff821415610f9657610f95610fa1565b5b600182019050919050565b7f4e487b7100000000000000000000000000000000000000000000000000000000600052601160045260246000fd5b7f4e487b7100000000000000000000000000000000000000000000000000000000600052601260045260246000fd5b7f6974656d20616c726561647920736f6c64000000000000000000000000000000600082015250565b7f5072696365206d7573742062652067726561746572207468616e207a65726f00600082015250565b7f6974656d20646f65736e27742065786973740000000000000000000000000000600082015250565b7f5265656e7472616e637947756172643a207265656e7472616e742063616c6c00600082015250565b6110ac81610ef8565b81146110b757600080fd5b50565b6110c381610f2a565b81146110ce57600080fd5b5056fea2646970667358221220170a40808970d2fa9467be001610b88521cc6eb4b19a4875cc87753a6dd7c5d664736f6c63430008040033",
  "immutableReferences": {
    "7": [
      {
        "length": 32,
        "start": 668
      },
      {
        "length": 32,
        "start": 1479
      }
    ],
    "9": [
      {
        "length": 32,
        "start": 720
      },
      {
        "length": 32,
        "start": 897
      },
      {
        "length": 32,
        "start": 994
      }
    ]
  },
  "source": "pragma solidity ^0.8.4;\n\nimport \"@openzeppelin/contracts/token/ERC721/IERC721.sol\";\n\nimport \"@openzeppelin/contracts/security/ReentrancyGuard.sol\";\n\n//import \"hardhat/console.sol\";\n\ncontract Marketplace is ReentrancyGuard {\n\n    // Variables\n    address payable public immutable feeAccount; // the account that receives fees\n    uint public immutable feePercent; // the fee percentage on sales\n    uint public itemCount;\n    uint public tPrice;\n\n    struct Item {\n        uint itemId;\n        IERC721 nft;\n        uint tokenId;\n        uint price;\n        address payable seller;\n        bool sold;\n   }\n\n    // itemId -> Item\n    mapping(uint => Item) public items;\n\n    event Offered(\n        uint itemId,\n        address indexed nft,\n        uint tokenId,\n        uint price,\n        address indexed seller\n    );\n    event Bought(\n        uint itemId,\n        address indexed nft,\n        uint tokenId,\n        uint price,\n        address indexed seller,\n        address indexed buyer\n    );\n\n    constructor(uint _feePercent) {\n        feeAccount = payable(msg.sender);\n        feePercent = _feePercent;\n    }\n\n    // Make item to offer on the marketplace\n    function makeItem(IERC721 _nft, uint _tokenId, uint _price) external nonReentrant {\n        require(_price > 0, \"Price must be greater than zero\");\n        // increment itemCount\n        itemCount ++;\n        // transfer nft\n        _nft.transferFrom(msg.sender, address(this), _tokenId);\n        // add new item to items mapping\n//  remove payable(msg.sender),\n\n\n        items[itemCount] = Item (\n            itemCount,\n            _nft,\n            _tokenId,\n            _price,\n            payable(msg.sender),\n            false\n        );\n        // emit Offered event\n        emit Offered(\n            itemCount,\n            address(_nft),\n            _tokenId,\n            _price,\n            msg.sender\n        );\n    }\n\n    function purchaseItem(uint _itemId) external payable nonReentrant {\n        uint _totalPrice = getTotalPrice(_itemId);\n        Item storage item = items[_itemId];\n        require(_itemId > 0 && _itemId <= itemCount, \"item doesn't exist\");\n        //require(msg.value >= _totalPrice, \"not enough ether to cover item price and market fee\");\n        require(!item.sold, \"item already sold\");\n        // pay seller and feeAccount\n        item.seller.transfer(item.price);\n        feeAccount.transfer(_totalPrice - item.price);\n        // update item to sold\n        item.sold = true;\n        // transfer nft to buyer\n        item.nft.transferFrom(address(this), msg.sender, item.tokenId);\n        // emit Bought event\n        emit Bought(\n            _itemId,\n            address(item.nft),\n            item.tokenId,\n            item.price,\n            item.seller,\n            msg.sender\n        );\n    }\n    \n\n    // maybe i have to pass money here iwth the send function\n    function getTotalPrice(uint _itemId) view public returns(uint){\n       return((items[_itemId].price*(100 + feePercent))/100);\n// not work.          return(.0001);\n//  return((items[_itemId].price*(100 + feePercent))/10000);\n    }\n\n    function setTotalPriceTwo(uint _itemId) public{\n       tPrice =  (items[_itemId].price*(100 + feePercent))/100;\n    }\n\n\n    function getTotalPriceTwo() view public returns(uint){\n       return(tPrice);\n    }\n\n\n\n\n\n//    uint public itemCount;\n    function getItemCount() public view returns(uint){\n        return itemCount;\n    }\n\n}\n\n",
  "sourcePath": "/home/ubuntu/nft_openseaclone/contracts/Marketplace.sol",
  "compiler": {
    "name": "solc",
    "version": "0.8.4+commit.c7e474f2.Emscripten.clang"
  },
  "schemaVersion": "3.2.3",
  "updatedAt": "2023-06-20T01:32:20.859Z",
  "networkType": "ethereum",
  "devdoc": {
    "kind": "dev",
    "methods": {},
    "version": 1
  },
  "userdoc": {
    "kind": "user",
    "methods": {},
    "version": 1
  }
}