{
  "contractName": "NFT",
  "abi": [
    {
      "inputs": [],
      "stateMutability": "nonpayable",
      "type": "constructor"
    },
    {
      "anonymous": false,
      "inputs": [
        {
          "indexed": true,
          "internalType": "address",
          "name": "owner",
          "type": "address"
        },
        {
          "indexed": true,
          "internalType": "address",
          "name": "approved",
          "type": "address"
        },
        {
          "indexed": true,
          "internalType": "uint256",
          "name": "tokenId",
          "type": "uint256"
        }
      ],
      "name": "Approval",
      "type": "event"
    },
    {
      "anonymous": false,
      "inputs": [
        {
          "indexed": true,
          "internalType": "address",
          "name": "owner",
          "type": "address"
        },
        {
          "indexed": true,
          "internalType": "address",
          "name": "operator",
          "type": "address"
        },
        {
          "indexed": false,
          "internalType": "bool",
          "name": "approved",
          "type": "bool"
        }
      ],
      "name": "ApprovalForAll",
      "type": "event"
    },
    {
      "anonymous": false,
      "inputs": [
        {
          "indexed": true,
          "internalType": "address",
          "name": "from",
          "type": "address"
        },
        {
          "indexed": true,
          "internalType": "address",
          "name": "to",
          "type": "address"
        },
        {
          "indexed": true,
          "internalType": "uint256",
          "name": "tokenId",
          "type": "uint256"
        }
      ],
      "name": "Transfer",
      "type": "event"
    },
    {
      "inputs": [
        {
          "internalType": "address",
          "name": "to",
          "type": "address"
        },
        {
          "internalType": "uint256",
          "name": "tokenId",
          "type": "uint256"
        }
      ],
      "name": "approve",
      "outputs": [],
      "stateMutability": "nonpayable",
      "type": "function"
    },
    {
      "inputs": [
        {
          "internalType": "address",
          "name": "owner",
          "type": "address"
        }
      ],
      "name": "balanceOf",
      "outputs": [
        {
          "internalType": "uint256",
          "name": "",
          "type": "uint256"
        }
      ],
      "stateMutability": "view",
      "type": "function",
      "constant": true
    },
    {
      "inputs": [
        {
          "internalType": "uint256",
          "name": "tokenId",
          "type": "uint256"
        }
      ],
      "name": "getApproved",
      "outputs": [
        {
          "internalType": "address",
          "name": "",
          "type": "address"
        }
      ],
      "stateMutability": "view",
      "type": "function",
      "constant": true
    },
    {
      "inputs": [
        {
          "internalType": "address",
          "name": "owner",
          "type": "address"
        },
        {
          "internalType": "address",
          "name": "operator",
          "type": "address"
        }
      ],
      "name": "isApprovedForAll",
      "outputs": [
        {
          "internalType": "bool",
          "name": "",
          "type": "bool"
        }
      ],
      "stateMutability": "view",
      "type": "function",
      "constant": true
    },
    {
      "inputs": [],
      "name": "name",
      "outputs": [
        {
          "internalType": "string",
          "name": "",
          "type": "string"
        }
      ],
      "stateMutability": "view",
      "type": "function",
      "constant": true
    },
    {
      "inputs": [
        {
          "internalType": "uint256",
          "name": "tokenId",
          "type": "uint256"
        }
      ],
      "name": "ownerOf",
      "outputs": [
        {
          "internalType": "address",
          "name": "",
          "type": "address"
        }
      ],
      "stateMutability": "view",
      "type": "function",
      "constant": true
    },
    {
      "inputs": [
        {
          "internalType": "address",
          "name": "from",
          "type": "address"
        },
        {
          "internalType": "address",
          "name": "to",
          "type": "address"
        },
        {
          "internalType": "uint256",
          "name": "tokenId",
          "type": "uint256"
        }
      ],
      "name": "safeTransferFrom",
      "outputs": [],
      "stateMutability": "nonpayable",
      "type": "function"
    },
    {
      "inputs": [
        {
          "internalType": "address",
          "name": "from",
          "type": "address"
        },
        {
          "internalType": "address",
          "name": "to",
          "type": "address"
        },
        {
          "internalType": "uint256",
          "name": "tokenId",
          "type": "uint256"
        },
        {
          "internalType": "bytes",
          "name": "_data",
          "type": "bytes"
        }
      ],
      "name": "safeTransferFrom",
      "outputs": [],
      "stateMutability": "nonpayable",
      "type": "function"
    },
    {
      "inputs": [
        {
          "internalType": "address",
          "name": "operator",
          "type": "address"
        },
        {
          "internalType": "bool",
          "name": "approved",
          "type": "bool"
        }
      ],
      "name": "setApprovalForAll",
      "outputs": [],
      "stateMutability": "nonpayable",
      "type": "function"
    },
    {
      "inputs": [
        {
          "internalType": "bytes4",
          "name": "interfaceId",
          "type": "bytes4"
        }
      ],
      "name": "supportsInterface",
      "outputs": [
        {
          "internalType": "bool",
          "name": "",
          "type": "bool"
        }
      ],
      "stateMutability": "view",
      "type": "function",
      "constant": true
    },
    {
      "inputs": [],
      "name": "symbol",
      "outputs": [
        {
          "internalType": "string",
          "name": "",
          "type": "string"
        }
      ],
      "stateMutability": "view",
      "type": "function",
      "constant": true
    },
    {
      "inputs": [],
      "name": "tokenCount",
      "outputs": [
        {
          "internalType": "uint256",
          "name": "",
          "type": "uint256"
        }
      ],
      "stateMutability": "view",
      "type": "function",
      "constant": true
    },
    {
      "inputs": [
        {
          "internalType": "uint256",
          "name": "tokenId",
          "type": "uint256"
        }
      ],
      "name": "tokenURI",
      "outputs": [
        {
          "internalType": "string",
          "name": "",
          "type": "string"
        }
      ],
      "stateMutability": "view",
      "type": "function",
      "constant": true
    },
    {
      "inputs": [
        {
          "internalType": "address",
          "name": "from",
          "type": "address"
        },
        {
          "internalType": "address",
          "name": "to",
          "type": "address"
        },
        {
          "internalType": "uint256",
          "name": "tokenId",
          "type": "uint256"
        }
      ],
      "name": "transferFrom",
      "outputs": [],
      "stateMutability": "nonpayable",
      "type": "function"
    },
    {
      "inputs": [
        {
          "internalType": "string",
          "name": "_tokenURI",
          "type": "string"
        }
      ],
      "name": "mint",
      "outputs": [
        {
          "internalType": "uint256",
          "name": "",
          "type": "uint256"
        }
      ],
      "stateMutability": "nonpayable",
      "type": "function"
    },
    {
      "inputs": [],
      "name": "getTokenCount",
      "outputs": [
        {
          "internalType": "uint256",
          "name": "",
          "type": "uint256"
        }
      ],
      "stateMutability": "view",
      "type": "function",
      "constant": true
    }
  ],
  "bytecode": "0x60806040523480156200001157600080fd5b506040518060400160405280600881526020017f44417070204e46540000000000000000000000000000000000000000000000008152506040518060400160405280600481526020017f4441505000000000000000000000000000000000000000000000000000000000815250816000908051906020019062000096929190620000b8565b508060019080519060200190620000af929190620000b8565b505050620001cd565b828054620000c69062000168565b90600052602060002090601f016020900481019282620000ea576000855562000136565b82601f106200010557805160ff191683800117855562000136565b8280016001018555821562000136579182015b828111156200013557825182559160200191906001019062000118565b5b50905062000145919062000149565b5090565b5b80821115620001645760008160009055506001016200014a565b5090565b600060028204905060018216806200018157607f821691505b602082108114156200019857620001976200019e565b5b50919050565b7f4e487b7100000000000000000000000000000000000000000000000000000000600052602260045260246000fd5b612c4280620001dd6000396000f3fe608060405234801561001057600080fd5b50600436106101005760003560e01c806378a8956711610097578063b88d4fde11610066578063b88d4fde146102ad578063c87b56dd146102c9578063d85d3d27146102f9578063e985e9c51461032957610100565b806378a895671461023757806395d89b41146102555780639f181b5e14610273578063a22cb4651461029157610100565b806323b872dd116100d357806323b872dd1461019f57806342842e0e146101bb5780636352211e146101d757806370a082311461020757610100565b806301ffc9a71461010557806306fdde0314610135578063081812fc14610153578063095ea7b314610183575b600080fd5b61011f600480360381019061011a9190611cae565b610359565b60405161012c91906120f5565b60405180910390f35b61013d61043b565b60405161014a9190612110565b60405180910390f35b61016d60048036038101906101689190611d41565b6104cd565b60405161017a919061208e565b60405180910390f35b61019d60048036038101906101989190611c72565b610552565b005b6101b960048036038101906101b49190611b6c565b61066a565b005b6101d560048036038101906101d09190611b6c565b6106ca565b005b6101f160048036038101906101ec9190611d41565b6106ea565b6040516101fe919061208e565b60405180910390f35b610221600480360381019061021c9190611b07565b61079c565b60405161022e9190612332565b60405180910390f35b61023f610854565b60405161024c9190612332565b60405180910390f35b61025d61085e565b60405161026a9190612110565b60405180910390f35b61027b6108f0565b6040516102889190612332565b60405180910390f35b6102ab60048036038101906102a69190611c36565b6108f6565b005b6102c760048036038101906102c29190611bbb565b61090c565b005b6102e360048036038101906102de9190611d41565b61096e565b6040516102f09190612110565b60405180910390f35b610313600480360381019061030e9190611d00565b610ac0565b6040516103209190612332565b60405180910390f35b610343600480360381019061033e9190611b30565b610afc565b60405161035091906120f5565b60405180910390f35b60007f80ac58cd000000000000000000000000000000000000000000000000000000007bffffffffffffffffffffffffffffffffffffffffffffffffffffffff1916827bffffffffffffffffffffffffffffffffffffffffffffffffffffffff1916148061042457507f5b5e139f000000000000000000000000000000000000000000000000000000007bffffffffffffffffffffffffffffffffffffffffffffffffffffffff1916827bffffffffffffffffffffffffffffffffffffffffffffffffffffffff1916145b80610434575061043382610b90565b5b9050919050565b60606000805461044a90612588565b80601f016020809104026020016040519081016040528092919081815260200182805461047690612588565b80156104c35780601f10610498576101008083540402835291602001916104c3565b820191906000526020600020905b8154815290600101906020018083116104a657829003601f168201915b5050505050905090565b60006104d882610bfa565b610517576040517f08c379a000000000000000000000000000000000000000000000000000000000815260040161050e906122b2565b60405180910390fd5b6004600083815260200190815260200160002060009054906101000a900473ffffffffffffffffffffffffffffffffffffffff169050919050565b600061055d826106ea565b90508073ffffffffffffffffffffffffffffffffffffffff168373ffffffffffffffffffffffffffffffffffffffff1614156105ce576040517f08c379a00000000000000000000000000000000000000000000000000000000081526004016105c5906122f2565b60405180910390fd5b8073ffffffffffffffffffffffffffffffffffffffff166105ed610c66565b73ffffffffffffffffffffffffffffffffffffffff16148061061c575061061b81610616610c66565b610afc565b5b61065b576040517f08c379a0000000000000000000000000000000000000000000000000000000008152600401610652906121f2565b60405180910390fd5b6106658383610c6e565b505050565b61067b610675610c66565b82610d27565b6106ba576040517f08c379a00000000000000000000000000000000000000000000000000000000081526004016106b190612312565b60405180910390fd5b6106c5838383610e05565b505050565b6106e58383836040518060200160405280600081525061090c565b505050565b6000806002600084815260200190815260200160002060009054906101000a900473ffffffffffffffffffffffffffffffffffffffff169050600073ffffffffffffffffffffffffffffffffffffffff168173ffffffffffffffffffffffffffffffffffffffff161415610793576040517f08c379a000000000000000000000000000000000000000000000000000000000815260040161078a90612232565b60405180910390fd5b80915050919050565b60008073ffffffffffffffffffffffffffffffffffffffff168273ffffffffffffffffffffffffffffffffffffffff16141561080d576040517f08c379a000000000000000000000000000000000000000000000000000000000815260040161080490612212565b60405180910390fd5b600360008373ffffffffffffffffffffffffffffffffffffffff1673ffffffffffffffffffffffffffffffffffffffff168152602001908152602001600020549050919050565b6000600754905090565b60606001805461086d90612588565b80601f016020809104026020016040519081016040528092919081815260200182805461089990612588565b80156108e65780601f106108bb576101008083540402835291602001916108e6565b820191906000526020600020905b8154815290600101906020018083116108c957829003601f168201915b5050505050905090565b60075481565b610908610901610c66565b838361106c565b5050565b61091d610917610c66565b83610d27565b61095c576040517f08c379a000000000000000000000000000000000000000000000000000000000815260040161095390612312565b60405180910390fd5b610968848484846111d9565b50505050565b606061097982610bfa565b6109b8576040517f08c379a00000000000000000000000000000000000000000000000000000000081526004016109af90612292565b60405180910390fd5b60006006600084815260200190815260200160002080546109d890612588565b80601f0160208091040260200160405190810160405280929190818152602001828054610a0490612588565b8015610a515780601f10610a2657610100808354040283529160200191610a51565b820191906000526020600020905b815481529060010190602001808311610a3457829003601f168201915b505050505090506000610a62611235565b9050600081511415610a78578192505050610abb565b600082511115610aad578082604051602001610a9592919061206a565b60405160208183030381529060405292505050610abb565b610ab68461124c565b925050505b919050565b600060076000815480929190610ad5906125eb565b9190505550610ae6336007546112f3565b610af260075483611311565b6007549050919050565b6000600560008473ffffffffffffffffffffffffffffffffffffffff1673ffffffffffffffffffffffffffffffffffffffff16815260200190815260200160002060008373ffffffffffffffffffffffffffffffffffffffff1673ffffffffffffffffffffffffffffffffffffffff16815260200190815260200160002060009054906101000a900460ff16905092915050565b60007f01ffc9a7000000000000000000000000000000000000000000000000000000007bffffffffffffffffffffffffffffffffffffffffffffffffffffffff1916827bffffffffffffffffffffffffffffffffffffffffffffffffffffffff1916149050919050565b60008073ffffffffffffffffffffffffffffffffffffffff166002600084815260200190815260200160002060009054906101000a900473ffffffffffffffffffffffffffffffffffffffff1673ffffffffffffffffffffffffffffffffffffffff1614159050919050565b600033905090565b816004600083815260200190815260200160002060006101000a81548173ffffffffffffffffffffffffffffffffffffffff021916908373ffffffffffffffffffffffffffffffffffffffff160217905550808273ffffffffffffffffffffffffffffffffffffffff16610ce1836106ea565b73ffffffffffffffffffffffffffffffffffffffff167f8c5be1e5ebec7d5bd14f71427d1e84f3dd0314c0f7b2291e5b200ac8c7c3b92560405160405180910390a45050565b6000610d3282610bfa565b610d71576040517f08c379a0000000000000000000000000000000000000000000000000000000008152600401610d68906121d2565b60405180910390fd5b6000610d7c836106ea565b90508073ffffffffffffffffffffffffffffffffffffffff168473ffffffffffffffffffffffffffffffffffffffff161480610deb57508373ffffffffffffffffffffffffffffffffffffffff16610dd3846104cd565b73ffffffffffffffffffffffffffffffffffffffff16145b80610dfc5750610dfb8185610afc565b5b91505092915050565b8273ffffffffffffffffffffffffffffffffffffffff16610e25826106ea565b73ffffffffffffffffffffffffffffffffffffffff1614610e7b576040517f08c379a0000000000000000000000000000000000000000000000000000000008152600401610e7290612152565b60405180910390fd5b600073ffffffffffffffffffffffffffffffffffffffff168273ffffffffffffffffffffffffffffffffffffffff161415610eeb576040517f08c379a0000000000000000000000000000000000000000000000000000000008152600401610ee290612192565b60405180910390fd5b610ef6838383611385565b610f01600082610c6e565b6001600360008573ffffffffffffffffffffffffffffffffffffffff1673ffffffffffffffffffffffffffffffffffffffff1681526020019081526020016000206000828254610f51919061249e565b925050819055506001600360008473ffffffffffffffffffffffffffffffffffffffff1673ffffffffffffffffffffffffffffffffffffffff1681526020019081526020016000206000828254610fa89190612417565b92505081905550816002600083815260200190815260200160002060006101000a81548173ffffffffffffffffffffffffffffffffffffffff021916908373ffffffffffffffffffffffffffffffffffffffff160217905550808273ffffffffffffffffffffffffffffffffffffffff168473ffffffffffffffffffffffffffffffffffffffff167fddf252ad1be2c89b69c2b068fc378daa952ba7f163c4a11628f55a4df523b3ef60405160405180910390a461106783838361138a565b505050565b8173ffffffffffffffffffffffffffffffffffffffff168373ffffffffffffffffffffffffffffffffffffffff1614156110db576040517f08c379a00000000000000000000000000000000000000000000000000000000081526004016110d2906121b2565b60405180910390fd5b80600560008573ffffffffffffffffffffffffffffffffffffffff1673ffffffffffffffffffffffffffffffffffffffff16815260200190815260200160002060008473ffffffffffffffffffffffffffffffffffffffff1673ffffffffffffffffffffffffffffffffffffffff16815260200190815260200160002060006101000a81548160ff0219169083151502179055508173ffffffffffffffffffffffffffffffffffffffff168373ffffffffffffffffffffffffffffffffffffffff167f17307eab39ab6107e8899845ad3d59bd9653f200f220920489ca2b5937696c31836040516111cc91906120f5565b60405180910390a3505050565b6111e4848484610e05565b6111f08484848461138f565b61122f576040517f08c379a000000000000000000000000000000000000000000000000000000000815260040161122690612132565b60405180910390fd5b50505050565b606060405180602001604052806000815250905090565b606061125782610bfa565b611296576040517f08c379a000000000000000000000000000000000000000000000000000000000815260040161128d906122d2565b60405180910390fd5b60006112a0611235565b905060008151116112c057604051806020016040528060008152506112eb565b806112ca84611526565b6040516020016112db92919061206a565b6040516020818303038152906040525b915050919050565b61130d8282604051806020016040528060008152506116d3565b5050565b61131a82610bfa565b611359576040517f08c379a000000000000000000000000000000000000000000000000000000000815260040161135090612252565b60405180910390fd5b8060066000848152602001908152602001600020908051906020019061138092919061192b565b505050565b505050565b505050565b60006113b08473ffffffffffffffffffffffffffffffffffffffff1661172e565b15611519578373ffffffffffffffffffffffffffffffffffffffff1663150b7a026113d9610c66565b8786866040518563ffffffff1660e01b81526004016113fb94939291906120a9565b602060405180830381600087803b15801561141557600080fd5b505af192505050801561144657506040513d601f19601f820116820180604052508101906114439190611cd7565b60015b6114c9573d8060008114611476576040519150601f19603f3d011682016040523d82523d6000602084013e61147b565b606091505b506000815114156114c1576040517f08c379a00000000000000000000000000000000000000000000000000000000081526004016114b890612132565b60405180910390fd5b805181602001fd5b63150b7a0260e01b7bffffffffffffffffffffffffffffffffffffffffffffffffffffffff1916817bffffffffffffffffffffffffffffffffffffffffffffffffffffffff19161491505061151e565b600190505b949350505050565b6060600082141561156e576040518060400160405280600181526020017f300000000000000000000000000000000000000000000000000000000000000081525090506116ce565b600082905060005b600082146115a0578080611589906125eb565b915050600a82611599919061246d565b9150611576565b60008167ffffffffffffffff8111156115e2577f4e487b7100000000000000000000000000000000000000000000000000000000600052604160045260246000fd5b6040519080825280601f01601f1916602001820160405280156116145781602001600182028036833780820191505090505b5090505b600085146116c75760018261162d919061249e565b9150600a8561163c9190612634565b60306116489190612417565b60f81b818381518110611684577f4e487b7100000000000000000000000000000000000000000000000000000000600052603260045260246000fd5b60200101907effffffffffffffffffffffffffffffffffffffffffffffffffffffffffffff1916908160001a905350600a856116c0919061246d565b9450611618565b8093505050505b919050565b6116dd8383611751565b6116ea600084848461138f565b611729576040517f08c379a000000000000000000000000000000000000000000000000000000000815260040161172090612132565b60405180910390fd5b505050565b6000808273ffffffffffffffffffffffffffffffffffffffff163b119050919050565b600073ffffffffffffffffffffffffffffffffffffffff168273ffffffffffffffffffffffffffffffffffffffff1614156117c1576040517f08c379a00000000000000000000000000000000000000000000000000000000081526004016117b890612272565b60405180910390fd5b6117ca81610bfa565b1561180a576040517f08c379a000000000000000000000000000000000000000000000000000000000815260040161180190612172565b60405180910390fd5b61181660008383611385565b6001600360008473ffffffffffffffffffffffffffffffffffffffff1673ffffffffffffffffffffffffffffffffffffffff16815260200190815260200160002060008282546118669190612417565b92505081905550816002600083815260200190815260200160002060006101000a81548173ffffffffffffffffffffffffffffffffffffffff021916908373ffffffffffffffffffffffffffffffffffffffff160217905550808273ffffffffffffffffffffffffffffffffffffffff16600073ffffffffffffffffffffffffffffffffffffffff167fddf252ad1be2c89b69c2b068fc378daa952ba7f163c4a11628f55a4df523b3ef60405160405180910390a46119276000838361138a565b5050565b82805461193790612588565b90600052602060002090601f01602090048101928261195957600085556119a0565b82601f1061197257805160ff19168380011785556119a0565b828001600101855582156119a0579182015b8281111561199f578251825591602001919060010190611984565b5b5090506119ad91906119b1565b5090565b5b808211156119ca5760008160009055506001016119b2565b5090565b60006119e16119dc84612372565b61234d565b9050828152602081018484840111156119f957600080fd5b611a04848285612546565b509392505050565b6000611a1f611a1a846123a3565b61234d565b905082815260208101848484011115611a3757600080fd5b611a42848285612546565b509392505050565b600081359050611a5981612bb0565b92915050565b600081359050611a6e81612bc7565b92915050565b600081359050611a8381612bde565b92915050565b600081519050611a9881612bde565b92915050565b600082601f830112611aaf57600080fd5b8135611abf8482602086016119ce565b91505092915050565b600082601f830112611ad957600080fd5b8135611ae9848260208601611a0c565b91505092915050565b600081359050611b0181612bf5565b92915050565b600060208284031215611b1957600080fd5b6000611b2784828501611a4a565b91505092915050565b60008060408385031215611b4357600080fd5b6000611b5185828601611a4a565b9250506020611b6285828601611a4a565b9150509250929050565b600080600060608486031215611b8157600080fd5b6000611b8f86828701611a4a565b9350506020611ba086828701611a4a565b9250506040611bb186828701611af2565b9150509250925092565b60008060008060808587031215611bd157600080fd5b6000611bdf87828801611a4a565b9450506020611bf087828801611a4a565b9350506040611c0187828801611af2565b925050606085013567ffffffffffffffff811115611c1e57600080fd5b611c2a87828801611a9e565b91505092959194509250565b60008060408385031215611c4957600080fd5b6000611c5785828601611a4a565b9250506020611c6885828601611a5f565b9150509250929050565b60008060408385031215611c8557600080fd5b6000611c9385828601611a4a565b9250506020611ca485828601611af2565b9150509250929050565b600060208284031215611cc057600080fd5b6000611cce84828501611a74565b91505092915050565b600060208284031215611ce957600080fd5b6000611cf784828501611a89565b91505092915050565b600060208284031215611d1257600080fd5b600082013567ffffffffffffffff811115611d2c57600080fd5b611d3884828501611ac8565b91505092915050565b600060208284031215611d5357600080fd5b6000611d6184828501611af2565b91505092915050565b611d73816124d2565b82525050565b611d82816124e4565b82525050565b6000611d93826123d4565b611d9d81856123ea565b9350611dad818560208601612555565b611db681612721565b840191505092915050565b6000611dcc826123df565b611dd681856123fb565b9350611de6818560208601612555565b611def81612721565b840191505092915050565b6000611e05826123df565b611e0f818561240c565b9350611e1f818560208601612555565b80840191505092915050565b6000611e386032836123fb565b9150611e4382612732565b604082019050919050565b6000611e5b6025836123fb565b9150611e6682612781565b604082019050919050565b6000611e7e601c836123fb565b9150611e89826127d0565b602082019050919050565b6000611ea16024836123fb565b9150611eac826127f9565b604082019050919050565b6000611ec46019836123fb565b9150611ecf82612848565b602082019050919050565b6000611ee7602c836123fb565b9150611ef282612871565b604082019050919050565b6000611f0a6038836123fb565b9150611f15826128c0565b604082019050919050565b6000611f2d602a836123fb565b9150611f388261290f565b604082019050919050565b6000611f506029836123fb565b9150611f5b8261295e565b604082019050919050565b6000611f73602e836123fb565b9150611f7e826129ad565b604082019050919050565b6000611f966020836123fb565b9150611fa1826129fc565b602082019050919050565b6000611fb96031836123fb565b9150611fc482612a25565b604082019050919050565b6000611fdc602c836123fb565b9150611fe782612a74565b604082019050919050565b6000611fff602f836123fb565b915061200a82612ac3565b604082019050919050565b60006120226021836123fb565b915061202d82612b12565b604082019050919050565b60006120456031836123fb565b915061205082612b61565b604082019050919050565b6120648161253c565b82525050565b60006120768285611dfa565b91506120828284611dfa565b91508190509392505050565b60006020820190506120a36000830184611d6a565b92915050565b60006080820190506120be6000830187611d6a565b6120cb6020830186611d6a565b6120d8604083018561205b565b81810360608301526120ea8184611d88565b905095945050505050565b600060208201905061210a6000830184611d79565b92915050565b6000602082019050818103600083015261212a8184611dc1565b905092915050565b6000602082019050818103600083015261214b81611e2b565b9050919050565b6000602082019050818103600083015261216b81611e4e565b9050919050565b6000602082019050818103600083015261218b81611e71565b9050919050565b600060208201905081810360008301526121ab81611e94565b9050919050565b600060208201905081810360008301526121cb81611eb7565b9050919050565b600060208201905081810360008301526121eb81611eda565b9050919050565b6000602082019050818103600083015261220b81611efd565b9050919050565b6000602082019050818103600083015261222b81611f20565b9050919050565b6000602082019050818103600083015261224b81611f43565b9050919050565b6000602082019050818103600083015261226b81611f66565b9050919050565b6000602082019050818103600083015261228b81611f89565b9050919050565b600060208201905081810360008301526122ab81611fac565b9050919050565b600060208201905081810360008301526122cb81611fcf565b9050919050565b600060208201905081810360008301526122eb81611ff2565b9050919050565b6000602082019050818103600083015261230b81612015565b9050919050565b6000602082019050818103600083015261232b81612038565b9050919050565b6000602082019050612347600083018461205b565b92915050565b6000612357612368565b905061236382826125ba565b919050565b6000604051905090565b600067ffffffffffffffff82111561238d5761238c6126f2565b5b61239682612721565b9050602081019050919050565b600067ffffffffffffffff8211156123be576123bd6126f2565b5b6123c782612721565b9050602081019050919050565b600081519050919050565b600081519050919050565b600082825260208201905092915050565b600082825260208201905092915050565b600081905092915050565b60006124228261253c565b915061242d8361253c565b9250827fffffffffffffffffffffffffffffffffffffffffffffffffffffffffffffffff0382111561246257612461612665565b5b828201905092915050565b60006124788261253c565b91506124838361253c565b92508261249357612492612694565b5b828204905092915050565b60006124a98261253c565b91506124b48361253c565b9250828210156124c7576124c6612665565b5b828203905092915050565b60006124dd8261251c565b9050919050565b60008115159050919050565b60007fffffffff0000000000000000000000000000000000000000000000000000000082169050919050565b600073ffffffffffffffffffffffffffffffffffffffff82169050919050565b6000819050919050565b82818337600083830152505050565b60005b83811015612573578082015181840152602081019050612558565b83811115612582576000848401525b50505050565b600060028204905060018216806125a057607f821691505b602082108114156125b4576125b36126c3565b5b50919050565b6125c382612721565b810181811067ffffffffffffffff821117156125e2576125e16126f2565b5b80604052505050565b60006125f68261253c565b91507fffffffffffffffffffffffffffffffffffffffffffffffffffffffffffffffff82141561262957612628612665565b5b600182019050919050565b600061263f8261253c565b915061264a8361253c565b92508261265a57612659612694565b5b828206905092915050565b7f4e487b7100000000000000000000000000000000000000000000000000000000600052601160045260246000fd5b7f4e487b7100000000000000000000000000000000000000000000000000000000600052601260045260246000fd5b7f4e487b7100000000000000000000000000000000000000000000000000000000600052602260045260246000fd5b7f4e487b7100000000000000000000000000000000000000000000000000000000600052604160045260246000fd5b6000601f19601f8301169050919050565b7f4552433732313a207472616e7366657220746f206e6f6e20455243373231526560008201527f63656976657220696d706c656d656e7465720000000000000000000000000000602082015250565b7f4552433732313a207472616e736665722066726f6d20696e636f72726563742060008201527f6f776e6572000000000000000000000000000000000000000000000000000000602082015250565b7f4552433732313a20746f6b656e20616c7265616479206d696e74656400000000600082015250565b7f4552433732313a207472616e7366657220746f20746865207a65726f2061646460008201527f7265737300000000000000000000000000000000000000000000000000000000602082015250565b7f4552433732313a20617070726f766520746f2063616c6c657200000000000000600082015250565b7f4552433732313a206f70657261746f7220717565727920666f72206e6f6e657860008201527f697374656e7420746f6b656e0000000000000000000000000000000000000000602082015250565b7f4552433732313a20617070726f76652063616c6c6572206973206e6f74206f7760008201527f6e6572206e6f7220617070726f76656420666f7220616c6c0000000000000000602082015250565b7f4552433732313a2062616c616e636520717565727920666f7220746865207a6560008201527f726f206164647265737300000000000000000000000000000000000000000000602082015250565b7f4552433732313a206f776e657220717565727920666f72206e6f6e657869737460008201527f656e7420746f6b656e0000000000000000000000000000000000000000000000602082015250565b7f45524337323155524953746f726167653a2055524920736574206f66206e6f6e60008201527f6578697374656e7420746f6b656e000000000000000000000000000000000000602082015250565b7f4552433732313a206d696e7420746f20746865207a65726f2061646472657373600082015250565b7f45524337323155524953746f726167653a2055524920717565727920666f722060008201527f6e6f6e6578697374656e7420746f6b656e000000000000000000000000000000602082015250565b7f4552433732313a20617070726f76656420717565727920666f72206e6f6e657860008201527f697374656e7420746f6b656e0000000000000000000000000000000000000000602082015250565b7f4552433732314d657461646174613a2055524920717565727920666f72206e6f60008201527f6e6578697374656e7420746f6b656e0000000000000000000000000000000000602082015250565b7f4552433732313a20617070726f76616c20746f2063757272656e74206f776e6560008201527f7200000000000000000000000000000000000000000000000000000000000000602082015250565b7f4552433732313a207472616e736665722063616c6c6572206973206e6f74206f60008201527f776e6572206e6f7220617070726f766564000000000000000000000000000000602082015250565b612bb9816124d2565b8114612bc457600080fd5b50565b612bd0816124e4565b8114612bdb57600080fd5b50565b612be7816124f0565b8114612bf257600080fd5b50565b612bfe8161253c565b8114612c0957600080fd5b5056fea2646970667358221220df15fbc6dbd7fd08e0402345d0c7d5c01733168bff4d866218e49477b284fd6064736f6c63430008040033",
  "immutableReferences": {},
  "source": "pragma solidity ^0.8.4;\n\nimport \"@openzeppelin/contracts/token/ERC721/extensions/ERC721URIStorage.sol\";\n\ncontract NFT is ERC721URIStorage {\n    uint public tokenCount;\n    constructor() ERC721(\"DApp NFT\", \"DAPP\"){}\n    function mint(string memory _tokenURI) external returns(uint) {\n        tokenCount ++;\n        _safeMint(msg.sender, tokenCount);\n        _setTokenURI(tokenCount, _tokenURI);\n        return(tokenCount);\n    }\n\n    function getTokenCount() public view returns(uint){\n        return tokenCount;\n    }\n\n\n\n\n\n}\n\n",
  "sourcePath": "/home/ubuntu/nft_openseaclone/contracts/NFT.sol",
  "compiler": {
    "name": "solc",
    "version": "0.8.4+commit.c7e474f2.Emscripten.clang"
  },
  "schemaVersion": "3.2.3",
  "updatedAt": "2023-06-20T01:32:20.878Z",
  "networkType": "ethereum",
  "devdoc": {
    "kind": "dev",
    "methods": {
      "approve(address,uint256)": {
        "details": "See {IERC721-approve}."
      },
      "balanceOf(address)": {
        "details": "See {IERC721-balanceOf}."
      },
      "getApproved(uint256)": {
        "details": "See {IERC721-getApproved}."
      },
      "isApprovedForAll(address,address)": {
        "details": "See {IERC721-isApprovedForAll}."
      },
      "name()": {
        "details": "See {IERC721Metadata-name}."
      },
      "ownerOf(uint256)": {
        "details": "See {IERC721-ownerOf}."
      },
      "safeTransferFrom(address,address,uint256)": {
        "details": "See {IERC721-safeTransferFrom}."
      },
      "safeTransferFrom(address,address,uint256,bytes)": {
        "details": "See {IERC721-safeTransferFrom}."
      },
      "setApprovalForAll(address,bool)": {
        "details": "See {IERC721-setApprovalForAll}."
      },
      "supportsInterface(bytes4)": {
        "details": "See {IERC165-supportsInterface}."
      },
      "symbol()": {
        "details": "See {IERC721Metadata-symbol}."
      },
      "tokenURI(uint256)": {
        "details": "See {IERC721Metadata-tokenURI}."
      },
      "transferFrom(address,address,uint256)": {
        "details": "See {IERC721-transferFrom}."
      }
    },
    "version": 1
  },
  "userdoc": {
    "kind": "user",
    "methods": {},
    "version": 1
  }
}